:020000040800F2
:1000000000500020990100086D0F0008BB0D00088A
:10001000A10E0008C50800081D1E00080000000011
:1000200000000000000000000000000001010008C6
:10003000DD0A0008000000004501000889150008DD
:10004000B3010008B3010008B3010008B3010008C0
:10005000B3010008B3010008B3010008E10A000879
:10006000B3010008B3010008B3010008B3010008A0
:10007000B3010008B3010008B3010008B301000890
:10008000B3010008B3010008B3010008B301000880
:10009000B3010008B3010008B3010008B301000870
:1000A000B3010008B3010008B3010008B301000860
:1000B000B3010008B3010008B3010008B301000850
:1000C000B3010008B3010008B3010008B301000840
:1000D000B3010008F5170008B30100081D1A000855
:1000E000B3010008B3010008B3010008DFF80CD029
:1000F00000F0D6FB00480047752C00080050002097
:10010000224B19680868B0E8F00F80F30988BFF344
:100110006F8F4FF0000080F311884EF00D0E704786
:100120000000000006480068006880F3088862B696
:1001300061B6BFF34F8FBFF36F8F00DF00BF00BF0B
:1001400008ED00E0EFF30980BFF36F8F0F4B1A68E3
:1001500020E9F00F106008B54FF0500080F31188CF
:10016000BFF34F8FBFF36F8F03F030FF4FF00000EE
:1001700080F31188BDE8084019680868B0E8F00FFE
:1001800080F30988BFF36F8F704700BF0000002025
:10019000EFF3058070470000064880470648004797
:1001A000FEE7FEE7FEE7FEE7FEE7FEE7FEE7FEE727
:1001B000FEE7FEE7F5150008ED00000840EA010340
:1001C0009B0703D009E008C9121F08C0042AFAD20D
:1001D00003E011F8013B00F8013B521EF9D27047D1
:1001E00080EA010210B502F00043400022D04A002C
:1001F0001FD0010E01EB1261C0F35600C2F356028C
:1002000040F4000042F40002A0FB022000047F3909
:10021000140400D0401C50EA124001D44000491E92
:10022000C2B20C0604EBD010401C4008802A02D059
:1002300003E0002010BD20F00100002900DA0020BA
:10024000184310BD2DE9FE4F804681EA0300C00F20
:100250000C46009021F0004123F00045B8EB02006D
:10026000A94105D24046214690461C460B4602460F
:1002700023F00040104347D0270DC7F30A00C3F313
:100280000A510290401A019040286BDAC3F3130020
:1002900040F4801B0098924620B10023D2EB030A61
:1002A00063EB0B0B01985946C0F14002504600F039
:1002B00002FA06460D4650465946019A00F01AFACF
:1002C00010EB08006141002487EA115284EAE773C9
:1002D0001A4340D0009A62B3019A012A4FEA0752AA
:1002E00015DC001B61EB02014FF0004202EA0752ED
:1002F000CDE90042001C41F5801132462B4600F04A
:1003000051FA03B0BDE8F08F40462146F9E7001BE3
:1003100061EB0201001C41F5801300185B412018BD
:10032000A2F5001747EB030140EAD570B6196D41FD
:1003300011E06D084FEA360645EAC0754FEA0752EC
:10034000001B61EB0201001C41F5801149084FEAD6
:1003500030000019514132462B4603B0BDE8F04F42
:1003600000F011BA0098012240000023D0EB0202F5
:1003700063EBE073009821464FEAE074B8EB0000AD
:1003800061EB0401E9E783F000435BE781F00041A2
:1003900058E72DE9FE4F81EA030404F0004421F000
:1003A000004100944FF0000B23F0004350EA010499
:1003B0005ED052EA03045BD0C3F30A54C1F30A557A
:1003C0002C44A4F2F3340194A0FB0254C1F31301B2
:1003D00041F48011C3F3130343F4801301FB02447F
:1003E00000FB034E840A970A44EA815447EA835784
:1003F000A4FB076802958D0A05FB07854FEA932C3D
:1004000004FB0C542705029D4FEA065847EA1637AD
:10041000B5EB08056EEB070C870E920E47EA8117C5
:1004200042EA8312A7FB0201B6EB0B0164EB000466
:100430002B0D43EA0C335E1844EB1C50DA46514650
:10044000E7FB0201C5F313044FEA0B3343EA1453ED
:100450004FEA0432019C43EA0603A4F10C0402941F
:10046000009CCDE900B400F09DF903B0BDE8F08F29
:1004700000200146F9E72DE9F04D81EA030404F07C
:10048000004B21F0004514464FF0000A23F00041D4
:1004900050EA050220D054EA01021DD0C5F30A57E4
:1004A0000246C5F31303C1F31300C1F30A5640F427
:1004B000801543F48013A7EB0608101BD64608F2FC
:1004C000FD3873EB050002D308F1010801E0921832
:1004D0005B41B8F1000F03DA00200146BDE8F08D62
:1004E00000204FF48011064684460EE0171B73EB84
:1004F000050705D3121B63EB050306434CEA010C09
:1005000049084FEA300092185B4150EA0107EDD1EB
:1005100052EA030012D082EA040083EA050108438C
:1005200005D0101BAB4106D20122002306E00022B9
:100530004FF0004302E06FF0010253101AEB060087
:100540004CEB085110EB0A0041EB0B01BDE8F04DFC
:1005500000F019B9C10F80EAE0700844CA07962379
:10056000002100F0E2B896230022114600F0DDB829
:10057000C1F30A5210B5C1F3130140F2FF3341F445
:1005800080119A4201DA002010BD40F233439A42B2
:10059000A2F2334203DC524200F09CF810BD9040BE
:1005A00010BD00F0004230F000400AD0C10D01F54E
:1005B0006071C0F3160042EA0151C20840071143BE
:1005C000704700200146704701F0004330B421F02D
:1005D000004150EA010206D00A0DA2F56072C1F393
:1005E0001301002A02DC30BC00207047440F44EAAB
:1005F000C104C100E01830BC00EBC25000F08CB860
:10060000002801DBC0F10040002901DBC1F10041FD
:1006100081427047002801DBC0F10040002901DB66
:10062000C1F100418842704730B50B4601460020B9
:100630002022012409E021FA02F59D4205D303FAA4
:1006400002F5491B04FA02F52844151EA2F1010225
:10065000F1DC30BD2DE9F05F0546002092469B4657
:1006600088460646814640241BE0284641464746C8
:10067000224600F02FF853465A46C01A914110D333
:1006800011461846224600F016F82D1A67EB0108AD
:100690004F4622460120002100F00DF817EB00091B
:1006A0004E41201EA4F10104DFDC484631462A46B3
:1006B0004346BDE8F09F202A04DB203A00FA02F10D
:1006C000002070479140C2F1200320FA03F3194340
:1006D00090407047202A04DB203A21FA02F00021E2
:1006E000704721FA02F3D040C2F120029140084342
:1006F00019467047202A06DBCB17203A41FA02F050
:1007000043EAE07306E041FA02F3D040C2F120026E
:1007100091400843194670470029A8BF7047401C04
:10072000490008BF20F00100704710B4B0FA80FC07
:1007300000FA0CF050EA010404BF10BC704749B144
:10074000CCF1200421FA04F411FA0CF118BF0121B4
:1007500021430843A3EB0C01CB1D4FEA00614FEA94
:10076000102042BF002010BC704700EBC350104463
:100770000029A4BF10BC7047401C490008BF20F0EE
:10078000010010BC704710B5141E73F1000408DAA4
:10079000401C41F1000192185B411A4301D120F045
:1007A000010010BD2DE9F04D92469B4611B1B1FA02
:1007B00081F202E0B0FA80F220329046FFF77BFF30
:1007C00004460F4640EA0A0041EA0B0153465A46E6
:1007D000084313D0114653EA010019D0C8F1400272
:1007E0005046FFF777FF05460E46504659464246AB
:1007F000FFF761FF084305D0012004E02046394699
:10080000BDE8F08D0020054346EAE0762C433743EF
:100810000A986305E40AA0EB08000022FD0A44EAF6
:1008200047540A3002D500200146E9E701051019B6
:100830006941DDE9084500196941BDE8F04DA2E7CD
:10084000C1F30A52C1F3130140F2FF3341F48011A6
:100850009A4202DA00200146704740F233439A423E
:10086000A2F2334202DC5242FFF734BFFFF723BF4C
:1008700030B5041E71F1000404DB4FF00044404227
:1008800064EB0101141E73F1000405DB1C464FF0FC
:100890000043524263EB0403994208BF904230BDCB
:1008A000064C074D06E0E06840F0010394E80700BD
:1008B00098471034AC42F6D3FFF71CFC18500008E0
:1008C0003850000800BFFEE710B50A21802000F074
:1008D0000BFB18B10BA001F043F912E00A214FF411
:1008E000807000F001FB18B108A001F039F908E0B0
:1008F0000A214FF4007000F0F7FA10B105A001F0E2
:100900002FF910BD737065616B3500007370656100
:100910006B340000737065616B33000010B501200B
:1009200003F094FD0149086010BD0000D0000020D4
:1009300008B510208DF8030003208DF802004FF455
:100940000050ADF800000121082000F063FB69466B
:100950000F4800F0A3F94FF400510D4800F029FAB8
:10096000012003F073FD0B490860002210210420D0
:1009700003F07EFD084908600846006818B907A022
:1009800002F04CF802E00FA002F048F808BD0000A9
:10099000000C014088000020900000204552524F7A
:1009A000523A207844634D6F746F72517565756566
:1009B00020637265617465206661696C6564210DF0
:1009C0000A0000007844634D6F746F72517565754D
:1009D0006520637265617465642073756363657314
:1009E0007366756C6C79210D0A00000010B5044621
:1009F0002146012000F078FA1D49086021460220B6
:100A000000F072FA1A4908612146042000F06CFADD
:100A1000174948602146082000F066FA14498860AA
:100A20002146102000F060FA1149C86021462020BC
:100A300000F05AFA0E4948612146402000F054FA6D
:100A40000B4988612146802000F04EFA0849C861B0
:100A500021464FF4807000F047FA054908622146AC
:100A60004FF4007000F040FA0149486210BD0000E8
:100A7000C84B002010B500233222194608480068F0
:100A800003F032FD01280AD14103064800F091F934
:100A900000231A4619460248006803F065FE10BD9F
:100AA00088000020000C014010B5002332221946B6
:100AB0000848006803F018FD01280AD141030648E0
:100AC00000F079F900231A4619460248006803F03D
:100AD0004BFE10BD88000020000C01407047000054
:100AE0002DE9FC47002001900090022000F058F80A
:100AF00000283FD020480068012807D100211F4866
:100B000000F023FE01211D4800F0C0FD1A480068D6
:100B100018BB0021194800F0B9FD184800F0D1FDBC
:100B20001749088008460088FFF71DFD81461549D2
:100B3000FFF756FB0446FFF734FD07460022124B31
:100B4000FFF799FC0546FFF73FFD019000236A4639
:100B500001A90E48006803F0DBFE022000F01AF83D
:100B6000009838B14FF0805009490860BFF34F8FAB
:100B7000BFF36F8FBDE8FC870401214200040040F1
:100B8000C00000200000AA430088D340C400002019
:100B900004ED00E0014908607047000014040140C2
:100BA000014600200022074B1B6803EA0102054BA7
:100BB00014331B680B4013B10AB1012000E0002080
:100BC0007047000000040140002123498279002A77
:100BD0003AD00A46126803689A430B461A600A1D07
:100BE000126803689A430B1D1A60027911440A685F
:100BF00003681A430A60184A0832126803689A4365
:100C0000154B08331A601A1D126803689A43124B79
:100C10000C331A604279102A0ED11A1F1268036829
:100C20001A430D4B08331A601A1D126803681A43E1
:100C3000094B0C331A600DE00749427911440A68E8
:100C400003681A430A6005E0027911440A680368E0
:100C50009A430A60704700000004014030B500224A
:100C60008B071C0F0F2303FA04F20B4B8C1053F865
:100C700024309343084C8D1044F8253023468C10C3
:100C800053F824308C07240F00FA04F42343024C59
:100C90008D1044F8253030BD080001402DE9F041A9
:100CA000024600250026002000230024002791F89A
:100CB00003C00CF00F0591F803C00CF0100CBCF150
:100CC000000F03D091F802C04CEA050591F800C06E
:100CD000BCF1000F31D0146800202BE04FF0010C64
:100CE0000CFA00F3B1F800C00CEA03069E4220D1D2
:100CF00083004FF00F0C0CFA03F7BC4305FA03FC1A
:100D00004CEA040491F803C0BCF1280F06D14FF05F
:100D1000010C0CFA00FCC2F814C00AE091F803C000
:100D2000BCF1480F05D14FF0010C0CFA00FCC2F8E1
:100D300010C0401C0828D1D31460B1F800C0BCF129
:100D4000FF0F34DD546800202EE000F1080C4FF056
:100D5000010808FA0CF3B1F800C00CEA03069E4241
:100D600021D183004FF00F0C0CFA03F7BC4305FAB6
:100D700003FC4CEA040491F803C0BCF1280F05D130
:100D800000F1080C08FA0CF8C2F8148091F803C0BE
:100D9000BCF1480F07D100F1080C4FF0010808FA28
:100DA0000CF8C2F81080401C0828CED35460BDE86F
:100DB000F081416170470161704700BFFEE70000AC
:100DC00008B50121082000F025F94FF40040ADF8E6
:100DD000000028208DF8030069460248FFF75EFFF7
:100DE00008BD0000000C014008B50121042000F0FE
:100DF00011F948208DF803004FF44050ADF8000081
:100E000069460748FFF74AFF48208DF803004FF472
:100E10000050ADF8000069460148FFF73FFF08BDEC
:100E20000008014008B50121142000F0F3F84FF448
:100E30000050ADF8000010208DF8030003208DF85D
:100E4000020069461448FFF729FF4FF40051124889
:100E5000FFF7B1FF0820ADF8000010208DF8030067
:100E600003208DF8020069460C48FFF717FF0821A0
:100E70000A48FFF7A0FF1020ADF800008DF803002E
:100E800003208DF8020069460448FFF707FF102190
:100E90000248FFF790FF08BD001001400008014024
:100EA00000BFFEE710B503F021F9044908600846C9
:100EB000006810B902A000F0B3FF10BDCC00002004
:100EC000CAC2BCFEB4B4BDA8CAA7B0DC0D0A0000FB
:100ED00010B5002204210A2003F0CAFA0149086073
:100EE00010BD0000C80000202DE9F84304460D465F
:100EF00000260E480068B0B14FF47A7068434FF492
:100F00007A71B0FBF1F80123002221460748CDF8A1
:100F10000080006803F06CF9074607EA0400A0426D
:100F200000D1012600BF3046BDE8F883CC00002088
:100F300010B504460448006820B121460248006804
:100F400003F09AF810BD0000CC00002070470000AC
:100F500010B504460448006820B1214602480068E4
:100F600003F0D2F810BD0000CC0000207047000054
:100F700070B5002100230F22C47804B3154C2468F7
:100F800004F4E064C4F5E064210AC1F10403CA403A
:100F9000447804FA03F184781440214309010E4C8B
:100FA0000678A155047804F01F050124AC400578AB
:100FB0006D11AD0005F1E025C5F8004109E00478A8
:100FC00004F01F050124AC40044D0678761145F865
:100FD000264070BD0CED00E000E400E080E100E0A0
:100FE00002490143024A1160704700000000FA05FF
:100FF0000CED00E029B1064AD2690243044BDA61E4
:1010000004E0034AD2698243014BDA617047000071
:101010000010024029B1064A92690243044B9A61CA
:1010200004E0034A92698243014B9A6170470000D1
:101030000010024030B500210022002400232D4D75
:101040006D6805F00C0121B1042905D0082923D1D0
:1010500005E0294D056022E0274D05601FE0254D84
:101060006D6805F47012234D6D6805F48034022517
:1010700005EB92421CB9214D554305600BE01D4D17
:101080006D6805F400351DB11C4D5543056002E047
:10109000194D5543056002E0174D056000BF00BFC4
:1010A000144D6D6805F0F0010909154D6B5C05687C
:1010B000DD4045600F4D6D6805F4E061090A104D93
:1010C0006B5C4568DD4085600A4D6D6805F46051D4
:1010D000C90A0B4D6B5C4568DD40C560054D6D6808
:1010E00005F44041890B074D6B5CC568B5FBF3F512
:1010F000056130BD0010024000127A0000093D0079
:1011000060000020700000202DE9F04104464FF0FF
:101110007E552046FFF71EFA054600212846FFF7B8
:101120006FFA01D2002007E00B492846FFF772FA58
:1011300001D2094800E028460546284600F096F806
:101140002846FFF72EFA064632460B4603A001F06A
:1011500067FCBDE8F0810000000034435365742053
:10116000416E676C653A20252E3166A1E30D0A00B9
:1011700000B589B001210820FFF74CFF01210420B0
:10118000FFF738FF4FF40070ADF8200018208DF8FD
:10119000230003208DF8220008A91F48FFF77EFDD9
:1011A00044F61F60ADF818004620ADF8140000208A
:1011B000ADF81A00ADF8160005A9184800F0C8FAF5
:1011C0006020ADF804000120ADF806004FF4FA707D
:1011D000ADF80A000020ADF80C0001A90F4800F09E
:1011E00073FA01210D4800F051FA01210B4800F07B
:1011F00059FA00221021042003F03AF90849086046
:101200000846006818B907A001F00AFC02E00EA029
:1012100001F006FC09B000BD000C014000080040D0
:10122000D40000204552524F523A2078416E676CEC
:1012300065517565756520637265617465206661C9
:10124000696C6564210D0A0078416E676C655175A3
:101250006575652063726561746564207375636389
:1012600065737366756C6C79210D0A002DE9FC5F5E
:10127000834600215846FFF7C3F901D2002007E05A
:1012800013495846FFF7C6F901D2114800E0584605
:1012900083465846FFF785F900220E4BCDE9000141
:1012A000FFF7E9F8804600220B4BFFF772F806467D
:1012B00000220A4BFEF7C6FF0446FFF759F91FFA52
:1012C00080FA5146064800F03DFABDE8FC9F000058
:1012D000000034430080664000409F4000407F4053
:1012E0000008004010B504460C2C55D2DFE804F08D
:1012F00006121E23284932363A3E42462A480068E2
:10130000AA2801DBB42002E0274800680A302649F9
:10131000086042E0244800680A2801DC002002E05E
:10132000214800680A382049086036E01E480068F5
:101330001D49486031E01C4800681B4988602CE06A
:1013400001201949C86000231A461848006803F0B4
:101350000BFA22E016A000F003FC1EE016A000F03D
:10136000FFFB1AE016A000F0FBFB16E016A000F051
:10137000F7FB12E016A000F0F3FB0EE0FFF7A4FA73
:101380000BE00120FFF7E4FD00231A46064912484E
:10139000006803F0E9F900E000BF00BF02490868F7
:1013A00000F012FD10BD0000F04B0020D400002022
:1013B000737065616B310000737065616B320000A2
:1013C000737065616B330000737065616B3400008E
:1013D000737065616B3500009000002010B500222D
:1013E0000121052003F044F80149086010BD000008
:1013F0009400002010B50446214607A001F0ACFC83
:101400000C4841680CA001F0A7FC0A48816812A0B2
:1014100001F0A2FC10BD00007773657420616E6757
:101420006C655F7478742E74787420222564220DA4
:101430000A000000F04B0020777365742073657418
:101440005F616E676C655F747874312E7478742098
:10145000222564220D0A0000777365742073657479
:101460005F616E676C655F747874322E7478742077
:10147000222564220D0A000010B500F001F810BD0D
:101480000CB50020019000903348006840F4803093
:101490003149086000BF3048006800F40030009017
:1014A0000198401C0190009818B90198B0F5A06F00
:1014B000F1D12948006800F4003010B101200090FB
:1014C00001E0002000900098012843D123480068E3
:1014D00040F01000214908600846006820F0030031
:1014E00008600846006840F0020008601A4840683A
:1014F000194948600846406848600846406840F41A
:10150000806048600846406820F47C1048600846C7
:10151000406840F4E81048600846006840F0807079
:10152000086000BF0C48006800F000700028F9D087
:101530000948406820F003000749486008464068B1
:1015400040F00200486000BF0348406800F00C0013
:101550000828F9D10CBD0000001002400020024014
:10156000042808D14FF0E021096941F004014FF04F
:10157000E022116107E04FF0E021096921F0040148
:101580004FF0E0221161704710B503F0C5FA012851
:1015900001D002F041FF10BD70B505460420FFF7F1
:1015A000DFFF104800681049B0FBF1F00F490870E8
:1015B0000C4800680C49B0FBF1F44FF47A704443D6
:1015C00001200B4908804FF0E020006940F0020044
:1015D0004FF0E021086108464461006940F00100D5
:1015E000086170BD7400002040420F00DC00002044
:1015F000DE00002010B51348006840F001001149DA
:10160000086008464068104908400E49486008468E
:1016100000680E4908400B4908600846006820F43D
:10162000802008600846406820F4FE0048604FF4BF
:101630001F008860FFF720FF4FF00060044908603A
:1016400010BD0000001002400000FFF8FFFFF6FE92
:1016500008ED00E03EB505460C4601210220FFF7EB
:10166000C9FCADF80450ADF800400020ADF806000C
:10167000ADF802006946044800F06AF8002102480B
:1016800000F004F83EBD00000004004021B10288D3
:1016900042F00102028004E002884FF6FE731A4015
:1016A0000280704731B1B0F8442042F40042A0F803
:1016B000442005E0B0F84420C2F30E02A0F8442014
:1016C00070470146888C704770B5002200230024C3
:1016D000058C4EF6FF7635400584038C8488828B1A
:1016E00048F6FF752A404FF6FF452A400D884FF611
:1016F000FF7606EA05252A434DF6FF752B400D8936
:1017000006EA05352B434D8806EA05352B430B4D7C
:10171000A84202D00A4DA84208D14BF6FF752C40D2
:101720008D894FF6FF7606EA85152C4384808283E7
:10173000CD88A0F84050038470BD0000002C01400B
:1017400000340140A0F840107047818470470000C9
:10175000002202881D4B98420ED01D4B98420BD0A0
:10176000B0F1804F08D01B4B984205D01A4B9842DD
:1017700002D01A4B984204D14FF68F731A404B880F
:101780001A43174B984207D0164B984204D04FF695
:10179000FF431A40CB881A4302808B8883850B88CD
:1017A00003850A4B98420BD0094B984208D00E4B48
:1017B000984205D00D4B984202D00D4B984201D172
:1017C0000B7A03860123838270470000002C0140BE
:1017D000003401400004004000080040000C0040BC
:1017E000001000400014004000400140004401404F
:1017F000004801401CB50020019040F22551584896
:1018000000F01DFA00286ED0554800F0D3FAC4B29B
:101810005A2C69D00EDC442C51D006DC412C12D05D
:10182000422C1AD0432C74D135E0452C5DD0582C75
:10183000F9D16FE0A4F1610005287FD2DFE800F064
:10184000172135495F0000200090002301AA694656
:101850004448006803F05CF871E001200090002328
:1018600001AA69463F48006803F052F867E0022089
:101870000090002301AA69463A48006803F048F83E
:101880005DE003200090002301AA69463548006806
:1018900003F03EF853E004200090002301AA6946BB
:1018A0003048006803F034F849E006200090002337
:1018B00001AA69462B48006803F02AF83FE0072098
:1018C0000090002301AA69462648006803F020F82A
:1018D00035E008200090002301AA694621480068ED
:1018E00003F016F82BE035E01EE0092000900023FD
:1018F00001AA69461B48006803F00AF81FE00A20A5
:101900000090002301AA69461648006803F000F819
:1019100015E013E005200090002301AA6946114854
:10192000006802F0F5FF0AE00C200090002301AAF5
:1019300069460C48006802F0EBFF00E000BF00BF02
:10194000019838B14FF0805007490860BFF34F8FBE
:10195000BFF36F8F40F26571014800F048F91CBD7C
:10196000003801409400002004ED00E010B586B07E
:10197000044601210420FFF74DFB01218803FFF7F6
:1019800049FB4FF40070ADF8140003208DF81600E9
:1019900018208DF8170005A91E48FFF77FF94FF4AE
:1019A0008060ADF8140004208DF8170005A91948CF
:1019B000FFF774F901940020ADF80800ADF80A00B3
:1019C000ADF80C00ADF810000C20ADF80E0001A928
:1019D000114800F083F901210F4800F017F9402168
:1019E0000D4800F0FBF8012240F225510A4800F0B2
:1019F00050F925208DF8000006208DF80100032005
:101A00008DF8020001208DF803006846FFF7B0FA58
:101A100006B010BD00080140003801401CB5002090
:101A2000019040F22551134800F009F9D8B111484E
:101A300000F0C0F9C4B2502C09D10B200090002353
:101A400001AA69460C48006802F062FF00E000BF8E
:101A500000BF019838B14FF0805008490860BFF3CB
:101A60004F8FBFF36F8F40F26571024800F0BFF8EF
:101A70001CBD0000004800409400002004ED00E080
:101A800010B586B0044601210820FFF7C3FA0121F2
:101A90008804FFF7AFFA4FF48060ADF81400182007
:101AA0008DF8170003208DF8160005A92348FFF7CD
:101AB000F5F84FF40060ADF8140004208DF817001D
:101AC00005A91E48FFF7EAF801940020ADF80800C8
:101AD000ADF80A00ADF80C00ADF810000C20ADF820
:101AE0000E000020ADF8080001A9154800F0F6F836
:101AF000012240F22551124800F0CBF827208DF842
:101B0000000006208DF8010000208DF80200012061
:101B10008DF803006846FFF72BFA0121084800F012
:101B200075F8012002F092FC06490860084600683A
:101B300010B905A000F074F906B010BD000C01400A
:101B400000480040D8000020785573617274334D0E
:101B50007574657820B4B4BDA8CAA7B0DC0D0A00BE
:101B600070B5044600251748006830B300231422DE
:101B700019461448006802F0B7FCF8B10CE000BF49
:101B80008021114800F04EF80028F9D0615D0E4820
:101B900000F015F9681C85B2605D0028EFD100BF28
:101BA0004021094800F03EF80028F9D000231A46E9
:101BB00019460448006802F0D7FD02E003A000F0D7
:101BC0002FF970BDD800002000480040BBF1C8A12B
:101BD000BBA5B3E2CBF8CAA7B0DC0A0001F40072DF
:101BE000B2F5007F00D100BFCA430280704710B534
:101BF0000022002340F66A14A14200D100BF0A125D
:101C000001249440A3B2DC43048010BD21B1828939
:101C100042F40052828104E082894DF6FF731A403B
:101C20008281704702460020B1F5007F00D100BFDD
:101C300013880B400BB1012000E00020704770B505
:101C40000246002400230025002040F66A16B14217
:101C500000D100BFC1F3421501F01F03012606FAAF
:101C600003F3012D02D19689334006E0022D02D103
:101C7000168A334001E0968A33400C12012606FA98
:101C800004F41688344013B10CB1012000E00020A8
:101C900070BDF0B50346002400260025002040F664
:101CA0006A17B94200D100BF1846C1F3421401F0CF
:101CB0001F06012707FA06F5012C01D10C3004E0BC
:101CC000022C01D1103000E014301AB107682F4304
:101CD000076002E00768AF430760F0BD2DE9F047F9
:101CE00086B005460E460024A24600BFA146002746
:101CF000B08900B100BF2F462C8A4CF6FF7004401B
:101D0000F08804432C82AC894EF6F3100440B0886E
:101D100031890843718908430443AC81AC8A4FF68A
:101D2000FF400440B0890443AC8201A8FFF782F968
:101D30001F48874202D1DDF810A001E0DDF80CA0B9
:101D4000A88900F4004040B10AEBCA0000EB0A1079
:101D500031684900B0FBF1F807E00AEBCA0000EB7C
:101D60000A1031688900B0FBF1F86420B8FBF0F08C
:101D700004012009642101FB1089A88900F40040B6
:101D800040B1322000EBC900B0FBF1F000F00700D9
:101D9000044308E0322000EB09106421B0FBF1F0AD
:101DA00000F00F0004432C8106B0BDE8F08700006E
:101DB0000038014001468888C0F308007047C1F32D
:101DC000080282807047000070B50446002C01DADA
:101DD000002004E0B42C01DDB42000E020460446DD
:101DE0002046FFF707FB2046FEF7B4FB0546FFF74A
:101DF0003DFA214601A000F013FE70BD5B53473948
:101E0000305D2043757272656E7420416E676C653B
:101E10003A202564A1E30D0A0000000000BFFEE7A0
:101E20000FB4054B10B503A9044A029800F0F0F86E
:101E300010BC5DF814FB0000AD2A0008E000002093
:101E40007CB5044600201D46164600290BD0491ECD
:101E5000CDE90041044B6A462946304600F0B4F90A
:101E6000009A002111707CBDF728000802E008C824
:101E7000121F08C1002AFAD170477047002001E004
:101E800001C1121F002AFBD1704700002DE9FF5F3E
:101E900082B00021DDE90430020DDDF840B00343DB
:101EA00018D044F61050A2F2FF3242431514119894
:101EB00001281FD0A5EB0B00401C5FEA000A4FF081
:101EC00000064E4FDFF83891B046504615D5CAF19E
:101ED000000413E0119801244AA3012801D16FEAFC
:101EE0000B010298119AC0E90031C0E9024206B024
:101EF000BDE8F09FCBF10000DFE704460021404A37
:101F0000491842EB0450CDE9001012E0E00707D079
:101F100032463B4640464946FEF73BFA80468946F4
:101F200032463B4610461946FEF733FA06460F4640
:101F30006410002CEAD1DDE90401DDE90023BAF1E7
:101F4000000F06DAFEF725FA42464B46FEF721FA65
:101F500005E0FEF790FA42464B46FEF78CFA04463F
:101F60000E460022284BFEF783FC03D84FF0FF30CB
:101F7000014607E00022254B20463146FEF762F974
:101F8000FEF75EFC102409E0002C0ADB0A22002385
:101F9000FEF760FB039B30321A55641E50EA0102C3
:101FA000F2D1641C039AC4F111031444119A012A5A
:101FB00003D0012208430DD10AE0084304D00020D9
:101FC0004FF0110B119072E7A3EB0B056D1E0DE0A6
:101FD0005B4504DD4FF0000205F1010504E003DA82
:101FE0004FF00002A5F10105002AECD002981199EA
:101FF000C0E90231C0E9004579E700000000144063
:102000000000F03F300000000000F0430000E03F1F
:102010002DE9FF4F8BB09A460F460546002606E095
:1020200025280BD052460D9990476D1C761C2878B8
:102030000028F5D10FB03046BDE8F08F0024A0464F
:102040000122604900E0044315F8013F203B02FAF9
:1020500003F00842F7D128782E2817D115F8010F80
:1020600044F004042A280ED06FF02F022878A0F143
:10207000300109290AD808EB880102EB410100EB85
:1020800001086D1CF2E757F8048B6D1C287869284D
:102090003ED006DC0028CDD063280BD0642804D1C4
:1020A00036E0732810D075284BD052460D999047D2
:1020B000761C85E017F8040B8DF8000000208DF8E1
:1020C0000100E946012003E057F8049B4FF0FF3080
:1020D00061074FF0000401D40AE0641C44450DDAA6
:1020E0008442FADB19F804100029F6D106E0641CDA
:1020F0008442FCDB19F804100029F8D1264404E0DE
:1021000019F8010B52460D999047641EF8D257E01A
:1021100001CF4FF00A0B002802DA40422D2102E0E5
:10212000210504D52B218DF82410012103E0E107BE
:1021300005D02021F7E70DF1200908910CE00021DE
:10214000F9E701CF4FF00A0BF9E75946FEF76CFAB1
:1021500001F1300209F8012D0028F6D1ADEB09009C
:1021600000F1200B600701D44FF00108D84502DDD3
:10217000A8EB0B0000E000208046002406E009A840
:102180005246005D0D999047641C761C0898844265
:10219000F5DB04E0302052460D999047761CB8F1EB
:1021A0000001A8F10108F5DC05E019F8010B524621
:1021B0000D999047761CBBF10001ABF1010BF4DCEB
:1021C0006D1C34E7092801002DE9FF4F95B09B46AF
:1021D0008946064600250FE2252877D100242746A8
:1021E000F84A0121059400E0044316F8013F203B22
:1021F00001FA03F01042F7D130782A2811D06FF09D
:102200002F033078A0F13002092A16D8059A44F03D
:10221000020402EB820203EB42021044761C05909A
:10222000EFE759F8042B0592002A03DA504244F4F0
:102230000054059044F00204761C30782E2816D104
:1022400016F8010F44F004042A280DD06FF02F0275
:102250003078A0F13003092B09D807EB870302EB94
:102260004303C718761CF3E759F8047B761C3078D3
:102270006C280FD006DC4C2817D068280DD06A28AF
:1022800014D104E0742810D07A280FD10DE044F462
:1022900000140AE044F4801401E044F4401472781D
:1022A000824202D104F58014761C761C30786628B0
:1022B0000BD013DC582877D009DC002875D04528CE
:1022C000F6D04628F4D047281AD19DE118E06328BB
:1022D00035D0642879D0652812D195E1702873D063
:1022E00008DC6728F1D069286FD06E280DD06F28E0
:1022F00006D1B5E073282CD0752875D0782874D015
:102300005A46179990476D1C75E1C4F30250022894
:1023100009D003280DD0D9F8001004280DD00D6085
:1023200009F1040967E1D9F80010EA17C1E9005280
:10233000F6E7D9F800100D80F2E70D70F0E719F814
:10234000041B8DF8001000208DF80100EA460120E2
:1023500003E059F804AB4FF0FF3061074FF0000184
:1023600002D40DE008F101018846B9420FDA804538
:10237000F8DB1AF808100029F4D108E008F101018F
:1023800088468142FADB1AF808100029F6D1059830
:102390005B46A0EB080721463846179A00F094FAEE
:1023A000284400EB080507E04DE029E10DE01AF8AC
:1023B000010B5A4617999047B8F10108F7D25B46CE
:1023C00021463846179A13E142E00A220092C4F3EC
:1023D00002524FF0000A022A08D059F804CB032A0F
:1023E0004FEAEC710AD00DE029E02AE009F107017B
:1023F00021F00702F2E802C1914609E00FFA8CFCD5
:102400004FEAEC71042A03D14FFA8CFC4FEAEC71CD
:10241000002907DA0A460021DCF1000C61EB020119
:102420002D2202E0220504D52B228DF80420012262
:1024300003E0E20701D02022F7E7904659E00A21A5
:1024400002E010220DE010214FF0000A00910BE095
:1024500010224FF0000A44F004040827009203E021
:1024600008224FF0000A0092C4F30252022A05D05B
:1024700059F804CB0021032A08D009E009F107012B
:1024800021F00702F2E802C1914605E01FFA8CFC38
:10249000042A01D10CF0FF0C4FF00008220728D5C8
:1024A000702806D0009B83F0100353EA0A0305D07E
:1024B0000EE040228DF80420012208E05CEA0102CF
:1024C00006D030228DF804208DF8050002229046B7
:1024D000009B83F0080353EA0A030AD15CEA010275
:1024E00001D1620705D530228DF804204FF0010894
:1024F0007F1E582804D034A003900EA802900DE04F
:1025000036A0F9E753466046009AFEF7A3F88446E2
:102510000398825C0298401E029002705CEA0100FF
:10252000F0D1029806A9081A00F1200A600702D526
:1025300024F4803400E00127574502DDA7EB0A00B0
:1025400000E0002000EB0A01009005984144401A89
:102550000590E00306D45B462146179A059800F0E3
:10256000B3F90544002706E001A85A46C05D179953
:1025700090476D1C7F1C4745F6DBE0030CD55B469E
:102580002146179A059800F09FF9054404E0302091
:102590005A46179990476D1C0099481E00900029D3
:1025A000F5DC08E0029802995A460078491C02912D
:1025B000179990476D1CBAF10001AAF1010AF1DCEC
:1025C00065E10000092801003031323334353637F7
:1025D000383961626364656600000000303132336F
:1025E000343536373839414243444546000000000F
:1025F00000F058F90544761C307800287FF4ECADE3
:1026000019B02846BDE8F08F620700D4062709F10B
:10261000070222F0070CFCE80223E14603F0004821
:102620005FEA080C02D00FF2702C0DE05FEA045C48
:1026300002D50FF2682C07E05FEAC47C02D00FF2EB
:10264000602C01E0AFF2700C4FF0FF3823F0004334
:10265000CDF850C065280CD006DC452809D04628A6
:102660001DD047283DD13DE0662818D067287ED18F
:1026700038E00021112F01DB112000E0781CCDE9AA
:10268000000106A90EA8FFF701FCDDE90F010E9A73
:1026900003910021009207F1010A04914DE04FF0EF
:1026A00000400097CDE9011006A90EA8FFF7EEFB48
:1026B000DDE90F0203920E9B11990022DDF80CA0B8
:1026C0000093049211B9791C00EB010AB7EB0A00E0
:1026D00004D4C0F1FF3007F1010A0490AAEB07000F
:1026E000019044E0012F00DA01270021112F01DDC4
:1026F000112000E03846CDE9000106A90EA8FFF739
:10270000C5FBDDE90F010E9A0391002104910092AF
:10271000BA4621070CD40399514500DA8A46BAF12A
:10272000010F05DD009AAAF10101515C302908D0A2
:10273000B84202DA10F1040F06DA0121CDE90110E6
:1027400015E0AAF10101E9E7002805DC049901443C
:102750000491AAEB000102E0411C514500DD8A46CC
:102760000499401A401C01904FF00040029020074D
:1027700004D40198504501DBCDF8048000208DF889
:102780004F0002980DF14F07B0F1004F25D02B20DC
:102790000E9002984FF0020800280CDA4042029096
:1027A0002D200E9007E00A210298FDF73DFF303101
:1027B000029007F8011DB8F10001A8F10108F2DC50
:1027C00002980028EFD1791E0E980870307800F03A
:1027D000200040F0450007F8020D12A8C01B00F1D0
:1027E00007081498007800B1012000EB0A01019855
:1027F00001EBE07105984144401A401E0590E0034A
:1028000006D45B462146179A059800F05DF805440A
:102810001498007818B15A46179990476D1CE00338
:1028200024D55B462146179A059800F04DF80544DB
:102830001CE00498002807DBDDE90301884203DD82
:102840000098405C179901E0179930205A4690474C
:10285000049805F10105401C04900198401E019068
:1028600004D12E205A46179990476D1CBAF10001E9
:10287000AAF1010ADDDC05E017F8010B5A461799A9
:1028800090476D1CB8F10001A8F10108F4DC5B462B
:102890002146179A0598ABE62D0000002B0000009A
:1028A000200000002DE9F041044600251E46174691
:1028B000880404D405E039462020B0476D1C641E0E
:1028C000F9D52846BDE8F0812DE9F0410446002500
:1028D0001E469046C80301D5302700E02027880413
:1028E00004D505E041463846B0476D1C641EF9D555
:1028F0002846BDE8F0814A68002A06D00A68531CC1
:102900000B6010704868401E486070471CB5064850
:10291000012100238022CDE9001004A1064802F025
:10292000CBF801F0F7FA1CBD9800002073746172B7
:10293000745F7461736B0000E13600081FB50420FA
:10294000FEF706FB56E00A20FEF750F800230A22A5
:1029500069462948006801F0C7FD2848006918B198
:102960000320274908701DE024480068B8B12348B7
:10297000806830B12148406918B9012020490870A9
:1029800010E01E48C06830B11C48806918B90220A8
:102990001B49087006E000201949087002E0002079
:1029A0001749087016480078012802D002281AD169
:1029B0000CE00198FEF7A8FB322001F0F5F811A019
:1029C000019900F02BF8FEF76FF80FE00298FEF780
:1029D0009BFB322001F0E8F80DA0029900F01EF8F0
:1029E000FEF762F802E0FEF745F800BF00BF0A20DC
:1029F00001F0DAF8A7E7000090000020C84B0020A3
:102A00008C000020616E676C65313A25640D0A0008
:102A1000616E676C65323A25640D0A007047704735
:102A20000FB408B503A800900099029800F006F8CA
:102A30000020009001B05DF814FB000073B5A0B059
:102A400006461848006808B922B070BD3246802199
:102A50006846219BFFF7F4F90446002C20DD002393
:102A6000642219460F48006801F03EFD012817D185
:102A700000250CE000BF80210B48FFF7D3F80028A9
:102A8000F9D01DF805100848FFF799F96D1CA5420B
:102A9000F0DB00231A4619460248006801F064FE84
:102AA00000BFD1E7D00000200038014070B50446D7
:102AB0000D46E1B20548FFF782F900BF80210348C7
:102AC000FFF7B0F80028F9D0204670BD003801406B
:102AD0001FB507E04FF0FF31684601F035FC0A20D2
:102AE00001F062F8F6E7000017E00C48006818B93A
:102AF0000820FEF72DFA02E00820FEF719FA074831
:102B0000001D006818B91020FEF722FA02E010201C
:102B1000FEF70EFA012001F047F8E6E73001214206
:102B20000DE0002006490860C82001F03DF80120B2
:102B30000449C1F8B4014FF4487001F035F8F0E7EA
:102B4000B40122420000224208B501210420FEF710
:102B500061FA48208DF803001C20ADF8000069469A
:102B60000148FEF79BF808BD0008014042E02248FA
:102B7000006878B98020FEF7EBF90220FEF7D8F95B
:102B80002020FEF7D5F90420FEF7D2F91BA0FFF7AD
:102B900046FF02E08020FEF7CBF91748001F0068CF
:102BA00050B94FF48070FEF7D3F90220FEF7C0F958
:102BB0001CA0FFF734FF03E04FF48070FEF7B8F974
:102BC0000D480838006850B94FF40070FEF7C0F99E
:102BD0000220FEF7BDF91DA0FFF721FF03E04FF42F
:102BE0000070FEF7A5F9FEF7B1F900F081F8C820F2
:102BF00000F0DAFFBBE70000100121427773657433
:102C0000206C6576656C5F746578742E74787420BA
:102C100022B4A2C1CF38302525D2D4C9CF220D0A83
:102C20000000000077736574206C6576656C5F74D6
:102C30006578742E7478742022B4A2C1CF35302503
:102C400025D2D4C9CF220D0A000000007773657425
:102C5000206C6576656C5F746578742E747874206A
:102C600022B4A2C1CF32302525D2D4CFC2220D0A40
:102C7000000000004820FEF78FFC4FF44070FEF784
:102C8000AFF925205121002807DA0A07140E164A49
:102C900000F00F031B1FD45403E00A07130E134A5E
:102CA000135400BFFDF73AFEFEF798FB4FF4E130F6
:102CB000FEF75CFE4FF41650FEF7E2FEFEF708F951
:102CC000FEF7F0F8FDF734FEFEF7ACF8FEF78CF8EF
:102CD000FEF776F800F050FCFEF74AFAFFF734FFF3
:102CE000FFF714FE00BFFEE718ED00E000E400E08F
:102CF00070B500211648006801F0BEF905461F2492
:102D00001FE00120A040284020B11249312000F0EE
:102D100057FB03E00F49302000F052FB042C03D195
:102D20000C49202000F04CFB082C03D1094920203D
:102D300000F046FB0C2C03D10649202000F040FB9C
:102D4000641E002CDDDA03490A2000F039FB70BD57
:102D5000CC000020E00000200FB408B503A80090CC
:102D600000990298FFF76AFE0020009001B05DF81C
:102D700014FB00002DE9F04105460E461C4807688B
:102D80001C480068001D00F05FFD50B9194800683C
:102D900090F82C1001208840174909688143164893
:102DA0000160681C38B936B112480168091D134822
:102DB00000F096FD1AE07C190E4800684460BC42A1
:102DC00007D20C480168091D0D48006800F06EFD2F
:102DD0000CE008480168091D0A48006800F066FD1B
:102DE00009480068844201D207480460BDE8F081C8
:102DF000140000200000002018000020B403002070
:102E000008000020040000203000002010B5044617
:102E100000F072FD23480068401C224908602248E7
:102E2000006840B9204804600846006801280DD1B8
:102E300000F0ACF90AE01D48006838B91A4800688B
:102E4000C06AE16A884201D81748046018480068DF
:102E5000401C1749086094F82C100120884015493F
:102E60000968084313490860E16A01EB8101124ACD
:102E700002EB8100211D00F033FD00F077FD0B48CF
:102E8000006868B108480068C06AE16A884207D2F1
:102E90004FF0805009490860BFF34F8FBFF36F8F29
:102EA00010BD000010000020000000201C000020C9
:102EB0002C00002018000020E400002004ED00E0B9
:102EC00070B523E001F07AF81348006808B90120D2
:102ED00000E00020054602F00DF8BDB900F00CFD41
:102EE0000D48C068C468201D00F0AEFC0B480068A7
:102EF000401E0A4908600A480068401E08490860E8
:102F000000F034FD204600F060F800BF044800687F
:102F10000028D7D170BD0000A003002010000020C1
:102F20000C00002070B504460D46206C70B1216C79
:102F3000E0680844E0606168E068884201D3206886
:102F4000E0602846226CE168FDF738F970BD2DE994
:102F5000F04104460F4615464FF00008A66B206C62
:102F600040B9206860BB606801F098FE8046002090
:102F7000606025E07DB93946226CA068FDF71EF936
:102F8000216CA0680844A060D4E90110884217D3DE
:102F90002068A06014E03946226CE068FDF70EF965
:102FA000216CE068401AE0602168E068884203D242
:102FB000216C6068401AE060022D01D106B1761ED6
:102FC000701CA0634046BDE8F08110B50446206B3C
:102FD00000F0FAFC204600F0F7FC10BD30B54FF4CD
:102FE0009043174800F007042CB1C01D20F00700E3
:102FF000134C041B1B1B0246124C22600024114D73
:103000006C60D018083820F007000F4C20600024B6
:103010000D4D2D686C600C4D2D682C601146441AC6
:103020004C60094C24680C60084D4C682C60084DBD
:103030004C682C604FF00044064D2C6030BD000001
:10304000C80300203C000020440000204C00002069
:10305000480000205000002000BFFFF731FF064865
:1030600000680128F9D94FF0805004490860BFF387
:103070004F8FBFF36F8FF0E7E400002004ED00E016
:1030800010B504464CB1002060602060E060002371
:103090001A461946204601F067FB10BD2DE9F041A4
:1030A00006460D4617469846069C0DB9246000E07A
:1030B0002760E66325640121204601F0FBFABDE8A4
:1030C000F08100002DE9FF5F81460F469246DDE961
:1030D0000E6B109CAAF10100216B01EB800828F017
:1030E000070808F0070008B9012000E0002028B90F
:1030F00040F22B321BA121A0FEF792FE002507E033
:10310000795D04F134004155785D00B902E06D1C31
:10311000102DF5D300BF002143200155202E00D3F0
:103120001F26E66266640020A064201D00F0BBFB41
:1031300004F1180000F0B7FB2461C6F12000A06183
:1031400064620020E06484F8500049464046039AD7
:1031500000F0EAF92060BBF1000F01D0CBF800408D
:10316000BDE8FF9F4672656552544F535C737263AE
:103170005C7461736B732E63000000004572726FA4
:10318000723A25732C25640D0A00000010B5002446
:1031900007E004EB84010F4A02EB810000F076FBAC
:1031A000641C202CF5D30C4800F070FB0B4800F099
:1031B0006DFB0B4800F06AFB0A4800F067FB0A4809
:1031C00000F064FB044809490860044808490860A5
:1031D00010BD0000E40000206403002078030020FC
:1031E0008C030020A0030020B40300200400002072
:1031F0000800002010B50146164800E0006803688A
:103200008B42FBD30246436813448B4204D143688C
:103210004C682344436001460A464B6813440468E3
:10322000A34211D10C4C03682468A34208D04B6818
:103230000468646823444B6003681B680B6005E006
:10324000054B1B680B6001E003680B60884200D0EF
:10325000016010BD3C0000204400002070B5054610
:1032600000F04AFBA86B08B9012400E0002400F03C
:103270007DFB204670BD70B5054600F03DFBA86B98
:10328000E96B884201D1012400E0002400F06EFBCC
:10329000204670BD0A490968096809B9012100E0A2
:1032A000002121B14FF0FF31064A116006E00449C8
:1032B0000968C968C868034A41681160704700001E
:1032C00004000020300000200B480068401C08B9B2
:1032D000012000E0002020B9F42208A10DA0FEF793
:1032E0009FFD00BF502080F31188BFF34F8FBFF3C5
:1032F0006F8F00BF00BFFEE7540000204672656577
:1033000052544F535C70726F745C706F72742E63A2
:10331000000000004572726F723A25732C25640D0F
:103320000A00000010B50346002022B903EA010498
:1033300034B1012004E003EA01048C4200D10120F1
:1033400010BD70B5044600F0D7FA94F9455010E06E
:10335000606A08B9012000E0002038B904F12400B7
:1033600001F00AFD18B100F0E3FC00E003E0681E84
:1033700045B2002DECDC00BFFF2084F8450000F0D2
:10338000F5FA00F0B9FA94F9445010E0206908B950
:10339000012000E0002048B904F1100001F0ECFC2D
:1033A00008B100F0C5FC681E45B200E001E0002D48
:1033B000ECDC00BFFF2084F8440000F0D7FA70BDB9
:1033C000FFF774BB2DE9F04104464FF0000800F010
:1033D000F5FD3E48006808B9FFF700FE3C4800686C
:1033E000204000285FD1A4B1083404F0070080B168
:1033F00004F00700C0F10800044404F0070008B915
:10340000012000E0002020B9BF2232A137A0FEF742
:1034100007FD002C47D039480068844243D8384E15
:103420003046056801E02E462D686868A04202D249
:1034300028680028F7D125480068854233D03068D5
:1034400000F10808286830606868001B102813D94C
:103450002F1907F0070008B9012000E0002020B96B
:10346000EC221CA121A0FEF7DBFC6868001B786041
:103470006C603846FFF7BEFE204968680968081A84
:103480001E490860084600681E490968884203D240
:103490001A4800681B4908600D49686809680843B4
:1034A00068600020286001F025FD08F0070008B9D9
:1034B000012000E0002028B94FF4967205A10BA06E
:1034C000FEF7AEFC4046BDE8F0810000440000205D
:1034D000500000204672656552544F535C70726F05
:1034E000745C686561705F342E6300004572726FB2
:1034F000723A25732C25640D0A0000004800002054
:103500003C0000204C0000200648006830B105490E
:10351000096801F14800896C491C01600148006894
:103520007047000000000020001F4FF08073036010
:10353000001F21F001030360001F034B03601438D8
:103540000260203870470000C932000808B50FE05B
:1035500000235A1E69460748006800F0C5FF01288D
:1035600003D19DF80000FDF7BDFE012000F01CFB1B
:10357000EEE70000940000201FB501210520FDF7B3
:1035800049FD10208DF80F000120ADF80C0003203C
:103590008DF80E0003A92248FDF780FB28208DF846
:1035A0000F000220ADF80C0003A91D48FDF776FBC3
:1035B00001210020FDF752FB0220019000208DF830
:1035C000080010208DF8090001208DF80A0001A8DC
:1035D000FDF7FAFA07208DF8000005208DF80100AC
:1035E00000208DF8020001208DF803006846FDF7E9
:1035F000BFFC47214CF25030FEF72CF8002204218A
:10360000012000F035FF074908600846006818B936
:1036100005A0FFF703FA02E00CA0FFF7FFF91FBDBA
:1036200000080140C40000204552524F523A207811
:10363000416E676C6551756575652063726561746F
:1036400065206661696C6564210D0A0078416E67CA
:103650006C6551756575652063726561746564207C
:103660007375636365737366756C6C79210D0A00FD
:1036700008B5002000901EE001200F4908601420CA
:1036800000F092FA00200D49C1F88001C82000F036
:103690008BFA00231A4669460948006800F024FFA7
:1036A000012808D10098FCF77CFF044622460B460F
:1036B00004A0FFF7B3F9DFE78001214200002142B7
:1036C000C40000207773657420736730345F7478AA
:1036D000742E7478742022252E3266220D0A000082
:1036E0001CB5044600F008F92B48022100233222C1
:1036F000CDE9001029A12C4801F0DEF92B48022168
:1037000000233222CDE9001029A12C4801F0D4F980
:103710002B48042100238A01CDE9001029A12C485F
:1037200001F0CAF92B48042100238022CDE90010C2
:1037300029A12D4801F0C0F900200521034680226F
:10374000CDE9001029A12C4801F0B6F92B4802213F
:1037500000238022CDE9001029A12C4801F0ACF90A
:103760002B48022100233222CDE9001029A12D4847
:1037700001F0A2F92C48022100236422CDE90010B7
:103780002AA12F4801F098F92E48006800F048FA65
:1037900000F0ECF81CBD00009C0000206C6564315A
:1037A0005F7461736B000000212B0008A0000020F3
:1037B0006B65795F7461736B00000000E92A000893
:1037C000A400002073637265656E5F7461736B00A3
:1037D0004D350008A800002064635F6D6F746F7240
:1037E0005F7461736B0000003D2900085347393056
:1037F000204374726C000000113B0008B0000020F0
:10380000737230345F7461736B00000071360008AE
:10381000B4000020696E6672617265645F746173E2
:103820006B000000D12A0008B80000206C69717597
:1038300069645F6C6576656C5F7461736B00000032
:103840006D2B00089800002001460A69D1E901307B
:103850009860D1E9010358605068884201D18868B6
:103860005060002008611068401E106010687047AA
:1038700005490968886904490968C96AC1F12001D4
:10388000014A1268916170470000002000F10801B0
:1038900041604FF0FF31816000F10801C1600161BA
:1038A00000210160704700210161704710B5024698
:1038B0000B685C1C0CB9106907E002F1080000E01D
:1038C0004068446824689C42FAD944684C604C685B
:1038D000A160886041600A611468641C146010BDB6
:1038E00042684A6093688B60936859609160086190
:1038F00003685B1C0360704710B500BF502080F365
:103900001188BFF34F8FBFF36F8F00BF0B48006864
:10391000401C0A4908600846006801280DD1084883
:103920000068C0B208B9012000E0002028B94FF4B7
:10393000BD7204A109A0FEF773FA10BD5400002067
:1039400004ED00E04672656552544F535C70726F2F
:10395000745C706F72742E63000000004572726FA9
:10396000723A25732C25640D0A00000010B50B482F
:10397000006828B940F2811209A10FA0FEF750FAA1
:1039800006480068401E054908600846006820B9DE
:10399000002080F3118800BF00BF10BD540000203C
:1039A0004672656552544F535C70726F745C706FF1
:1039B00072742E63000000004572726F723A2573B4
:1039C0002C25640D0A00000070B506463546002E11
:1039D00035D0083D2C461A4960680968084008B18E
:1039E000012000E0002028B94FF4A07215A11BA00F
:1039F000FEF716FA206808B9012000E0002028B977
:103A000040F241120FA115A0FEF70AFA0C496068B6
:103A10000968084098B1206888B909496068096850
:103A20008843606000F0CAFA104960680968084479
:103A30000E4908602046FFF7DDFB01F05BFA70BD20
:103A4000500000204672656552544F535C70726F8F
:103A5000745C686561705F342E6300004572726F3C
:103A6000723A25732C25640D0A00000048000020DE
:103A700003484FF0E02148610720086170470000CB
:103A80003F19010070B5FCF783FB0546102D11D3DB
:103A900005F1E02090F8F04310480078844201DB03
:103AA000012000E0002028B94FF42A720CA112A0D6
:103AB000FEF7B6F91448006800F4E060134909689D
:103AC000884201D8012000E0002028B94FF42E726E
:103AD00003A109A0FEF7A4F970BD00005800002062
:103AE0004672656552544F535C70726F745C706FB0
:103AF00072742E63000000004572726F723A257373
:103B00002C25640D0A0000000CED00E05C00002094
:103B10001FB50020009001900290039000242DE03A
:103B200000230A2269461648006800F0DDFC0028E0
:103B300021D014A00399FEF773FF15A00199FEF799
:103B40006FFF16A00299FEF76BFF0398012812D1B0
:103B50000CE00198FDF7D8FA642000F025F80298EF
:103B6000FDF7D2FA642000F01FF8641C022CF0DB91
:103B70000024002003900A2000F016F8D0E700008F
:103B8000D4000020746573743A25640D0A000000A7
:103B9000616E676C65313A25640D0A00616E676C71
:103BA00065323A25640D0A0070B504460025ACB1B3
:103BB0000F48006808B9012000E0002028B940F251
:103BC000CF420CA111A0FEF72BF900F0F7F900216C
:103BD0002046FFF7CFF801F08DF905463DB94FF0CB
:103BE00080500E490860BFF34F8FBFF36F8F70BDD9
:103BF000380000204672656552544F535C737263FF
:103C00005C7461736B732E63000000004572726F09
:103C1000723A25732C25640D0A00000004ED00E0C3
:103C200070B50546FFF768FE15B92D48006800E03D
:103C300028460446201DFFF707FE78B9E06A00EB2E
:103C40008000284951F8200040B994F82C10012038
:103C5000884025490968814323480160A06A18B15A
:103C600004F11800FFF7F0FD20480068401C1F49D0
:103C700008601B480068844209D1211D1C48FFF7D9
:103C80002FFE1C480068401C1A49086009E01A48C9
:103C90000068401E184908602046FFF796F9FFF7B4
:103CA000F9FAFFF763FE15480068C0B10C480068D8
:103CB000844214D11248006808B9012000E00020B5
:103CC00028B940F265420FA114A0FEF7A9F84FF001
:103CD000805016490860BFF34F8FBFF36F8F70BDE0
:103CE00000000020E4000020180000202C0000202C
:103CF000A00300200C000020100000201C00002069
:103D0000380000204672656552544F535C737263ED
:103D10005C7461736B732E63000000004572726FF8
:103D2000723A25732C25640D0A00000004ED00E0B2
:103D300001200149086070472400002070B5044646
:103D40000D462CB940F6063207A10DA0FEF768F823
:103D50000F48016818312046FFF7A8FD01212846C9
:103D6000FFF708F870BD00004672656552544F5366
:103D70005C7372635C7461736B732E63000000008C
:103D80004572726F723A25732C25640D0A0000008B
:103D90000000002070B504460D4616462CB940F6CA
:103DA000173210A115A0FEF73BF81848006808B1BB
:103DB000012000E0002028B940F61B3209A10FA025
:103DC000FEF72EF845F00040114909688861104857
:103DD000016818312046FFF783FD01213046FEF7C8
:103DE000C9FF70BD4672656552544F535C73726370
:103DF0005C7461736B732E63000000004572726F18
:103E0000723A25732C25640D0A000000380000204A
:103E10000000002070B505462C46002D4BD02649E9
:103E2000E06A0968C96A884245D2A06900F000408A
:103E300028B921480068C06AC0F12000A061E16A89
:103E400001EB81011D4A02EB81016069884201D1C9
:103E5000012000E0002050B3201DFFF7F5FC78B9E9
:103E6000E06A00EB8000154951F8200040B994F851
:103E70002C100120884012490968814310480160D4
:103E80000D480068C06AE06294F82C100120884058
:103E90000B49096808430A490860E16A01EB81019E
:103EA000064A02EB8100211DFFF71AFD03E00248DC
:103EB0000068C06AE06270BD00000020E4000020DD
:103EC0001800002010B504462CB940F6C13205A1F7
:103ED0000AA0FDF7A5FF0D48006820600C480068A7
:103EE000606010BD4672656552544F535C737263D7
:103EF0005C7461736B732E63000000004572726F17
:103F0000723A25732C25640D0A0000002800002059
:103F1000140000201CB5184800210B468022CDE972
:103F2000001016A1174800F0C7FD0446012C15D15A
:103F300000BF502080F31188BFF34F8FBFF36F8F06
:103F400000BF4FF0FF301049086001200F490860A2
:103F500000200F49086000F00FFA0BE0601C08B168
:103F6000012000E0002028B940F2847209A10FA0CE
:103F7000FDF756FF1CBD00003400002049444C45AD
:103F80000000000059300008300000201C00002014
:103F9000140000204672656552544F535C7372637F
:103FA0005C7461736B732E63000000004572726F66
:103FB000723A25732C25640D0A000000024800683F
:103FC000401C0149086070473800002010B51B48AC
:103FD000006818B101201A4908602DE00020184936
:103FE000086018480068B0FA80F0C0F11F0404EBC4
:103FF0008400154951F8200008B1012000E000209C
:1040000028B940F6F62211A116A0FDF709FF04EB2E
:1040100084010D4A02EB810041684968416000F16A
:10402000080142688A4202D141684968416041689A
:10403000C968104A116000BF10BD000038000020A0
:104040002400002018000020E4000020467265656E
:1040500052544F535C7372635C7461736B732E6361
:10406000000000004572726F723A25732C25640DB2
:104070000A000000000000202DE9F04105460E4630
:104080002C462DB940F2DF120DA114A0FDF7C8FE99
:1040900006F07F4008B9012000E0002028B94FF465
:1040A000F07207A10DA0FDF7BBFEFFF725FC276806
:1040B0002068B0432060FFF759FC3846BDE8F08126
:1040C0004672656552544F535C7372635C657665E6
:1040D0006E745F67726F7570732E63004572726FD6
:1040E000723A25732C25640D0A00000010B51820C3
:1040F000FFF768F9044624B100202060201DFFF777
:10410000C5FB204610BD00002DE9FE4F074688463E
:10411000002001903C4600902FB940F21D2229A1B9
:104120002FA0FDF77DFE08F07F4008B9012000E0D8
:10413000002028B940F21E2222A129A0FDF770FE1E
:1041400004F1040909F108000290FFF737FFD9F8DC
:104150000C60206840EA0800206026E0D6F804B031
:1041600035680020009005F07F4A25F07F450AF071
:10417000806028B92068284040B10120009005E007
:1041800020682840A84201D101200090009858B131
:104190000AF0807010B1019828430190206840F027
:1041A0000071304600F044FE5E4602988642D5D14A
:1041B000206801998843206000F09CFE2068BDE8DB
:1041C000FE8F00004672656552544F535C737263F4
:1041D0005C6576656E745F67726F7570732E6300D1
:1041E0004572726F723A25732C25640D0A00000027
:1041F0002DE9FF4F83B081460D461746DDF840801C
:104200004C464FF0000A00200190B9F1000F05D193
:1042100040F24D1240A147A0FDF702FE05F07F409D
:1042200008B9012000E0002028B94FF4A7723AA194
:1042300040A0FDF7F5FD0DB1012000E0002028B9F8
:1042400040F24F1234A13BA0FDF7EAFD00F064FC00
:1042500010B9B8F1000F01D1012000E0002028B909
:104260004FF4A9722CA133A0FDF7DAFDFFF7A6FEEB
:10427000206800902946069A0098FFF753F80290AC
:10428000029838B1009E4FF00008B7B12068A843EB
:10429000206012E0B8F1000F01D1009E0DE00FB1D7
:1042A0004AF0807A069808B14AF0806A45EA0A0125
:1042B0004246201DFFF76EFD002600F01BFE8346E0
:1042C000B8F1000F23D0BBF1000F07D14FF08050A1
:1042D0001C490860BFF34F8FBFF36F8FFFF7C8FA19
:1042E000064606F0007080B9FFF706FB26682946EF
:1042F0003046069AFFF716F818B117B12068A843A0
:104300002060FFF733FB0020019026F07F46304607
:1043100007B0BDE8F08F00004672656552544F53F8
:104320005C7372635C6576656E745F67726F7570DF
:10433000732E63004572726F723A25732C25640DDB
:104340000A00000004ED00E038B504460D460948B7
:10435000006868B100232A4669460648006800F0F4
:10436000C3F8012803D100982060012038BD00BFA8
:104370000020FBE7C80000201CB522480146097850
:104380000191FF21024611700146097800919DF8C4
:10439000001001F050011C4A117007211B4A1160E6
:1043A00009E01A490968491E184A11609DF8001071
:1043B0004906090E00919DF8001001F08001802946
:1043C000EFD0124909680902104A116011460988A4
:1043D00001F4E06111600B4A019911700C4800680A
:1043E00040F470000A4908600846006840F07040D8
:1043F0000860FFF73DFB002006490860FBF792FECE
:1044000000201CBD00E400E0580000205C000020FB
:1044100020ED00E05400002010B500BF502080F3D4
:104420001188BFF34F8FBFF36F8F00BF00F084FB85
:1044300018B14FF080500449086000BF002080F39D
:10444000118800BF10BD000004ED00E02DE9F0412F
:1044500004460126002722460021012000F008F82A
:1044600005462846FEF70CFE2846BDE8F081000010
:104470002DE9F84305460E4690460DB1012000E0B7
:10448000002028B94FF4C4720DA113A0FDF7C8FC99
:104490000EB9002701E005FB06F707F14800FEF71B
:1044A00091FF044644B104F1480943464A46314667
:1044B00028460094FEF7F2FD2046BDE8F883000090
:1044C0004672656552544F535C7372635C717565D7
:1044D00075652E63000000004572726F723A257395
:1044E0002C25640D0A0000002DE9FF4782B0054627
:1044F0000E461F464FF0000A2C462CB940F2DC4213
:1045000061A167A0FDF78CFC0EB9206C08B90120F1
:1045100000E0002028B940F2DD425BA160A0FDF779
:104520007FFC00F0F9FA08B9049808B9012000E00E
:10453000002028B94FF49C6253A159A0FDF770FCEC
:1045400000BFFFF7D9F9D4F83890B9F1000F3DD08A
:10455000D4F80C8031462046FEF7E4FCDFB9A9F11F
:104560000100A063206810B9FEF7CEFF60602069EB
:1045700008B9012000E0002010BB04F1100000F099
:10458000FBFBE8B14FF0805049490860BFF34F8F03
:10459000BFF36F8F14E0C4F80C80606A08B9012083
:1045A00000E0002060B904F1240000F0E5FB38B120
:1045B0004FF080503E490860BFF34F8FBFF36F8FBD
:1045C000FFF7D4F9012006B0BDE8F087049818B9C8
:1045D000FFF7CCF90020F6E7BAF1000F04D16846E6
:1045E000FFF770FC4FF0010AFFF7C0F9FFF7E6FC98
:1045F000FFF782F994F94400401C10B9002084F8B8
:10460000440094F94500401C10B9002084F845008E
:10461000FFF7ACF904A9684600F0FCF940BB20465E
:10462000FEF71CFEF0B1206830B9FFF765F960684D
:10463000FFF7F0FBFFF79AF904F124000499FFF764
:104640007DFB2046FEF77DFE00F054FC00287FF441
:1046500078AF4FF0805016490860BFF34F8FBFF31B
:104660006F8F6EE72046FEF76CFE00F043FC68E7B4
:104670002046FEF766FE00F03DFC2046FEF7EEFD0C
:104680000028EED000209EE74672656552544F53D5
:104690005C7372635C71756575652E630000000064
:1046A0004572726F723A25732C25640D0A00000062
:1046B00004ED00E070B505460E462C462CB940F2DC
:1046C0001B121EA123A0FDF7ABFBFFF715F9D4E9E0
:1046D0000F12206801FB020060600020A0632068C8
:1046E000A060E06B401E226C216800FB0210E060BD
:1046F000FF2084F8440084F845009EB9206908B979
:10470000012000E00020A8B904F1100000F034FB03
:1047100080B14FF0805013490860BFF34F8FBFF353
:104720006F8F07E004F11000FFF7B0F804F12400E8
:10473000FFF7ACF8FFF71AF9012070BD4672656506
:1047400052544F535C7372635C71756575652E636B
:10475000000000004572726F723A25732C25640DBB
:104760000A00000004ED00E02DE9FF4383B0064697
:1047700088461D464FF0000934462CB940F2D92234
:1047800058A15EA0FDF74CFBB8F1000F01D1206CE1
:1047900008B9012000E0002028B940F2DA2251A136
:1047A00056A0FDF73DFB022D02D1E06B012801D19F
:1047B000012000E0002028B940F2DB2249A14FA0EF
:1047C000FDF72EFB00F0A8F908B9059808B90120FB
:1047D00000E0002028B940F2DE2242A147A0FDF708
:1047E0001FFB00BFFFF788F8A06BE16B884201D385
:1047F000022D28D12A4641462046FEF7A8FB07464F
:10480000606A08B9012000E0002068B904F12400C2
:1048100000F0B2FA88B14FF080503C490860BFF315
:104820004F8FBFF36F8F08E03FB14FF08050374993
:104830000860BFF34F8FBFF36F8FFFF797F801202A
:1048400007B0BDE8F083059818B9FFF78FF800208E
:10485000F6E7B9F1000F04D101A8FFF733FB4FF0E1
:104860000109FFF783F8FFF7A9FBFFF745F894F973
:104870004400401C10B9002084F8440094F945001D
:10488000401C10B9002084F84500FFF76FF805A917
:1048900001A800F0BFF8F0B92046FEF7ECFCA0B18B
:1048A00004F110000599FFF749FA2046FEF749FD8B
:1048B00000F020FB002895D14FF08050134908608C
:1048C000BFF34F8FBFF36F8F8CE72046FEF739FDA4
:1048D00000F010FB86E72046FEF733FD00F00AFBF0
:1048E0000020ADE74672656552544F535C737263A6
:1048F0005C71756575652E63000000004572726F0E
:10490000723A25732C25640D0A00000004ED00E0C6
:104910002DE9F05F07468A4690461E463C462CB974
:1049200040F29F3231A137A0FDF77AFABAF1000FB9
:1049300001D1206C08B9012000E0002028B94FF413
:1049400068722AA12FA0FDF76BFA022E02D1E06B4C
:10495000012801D1012000E0002028B940F2A13255
:1049600022A128A0FDF75CFAFFF78CF800BF5021C8
:10497000EFF3118081F31188BFF34F8FBFF36F8F77
:1049800000BF0546A06BE16B884201D3022E23D104
:1049900094F945B0324651462046FEF7D8FA0BF15D
:1049A000010088B9606A08B9012000E0002080B9E0
:1049B00004F1240000F0E0F958B1B8F1000F08D07C
:1049C0000120C8F8000004E00BF1010040B284F8B7
:1049D00045004FF0010901E04FF0000900BF85F3E9
:1049E000118800BF4846BDE8F09F0000467265652B
:1049F00052544F535C7372635C71756575652E63B9
:104A0000000000004572726F723A25732C25640D08
:104A10000A0000002DE9F04104460D462CB940F68D
:104A2000CB3219A11EA0FDF7FBF92DB940F6CC320F
:104A300015A11BA0FDF7F4F9FEF75EFF1C480768FF
:104A40002868401C08B9002619E01A49206809683E
:104A5000884204D06068B84201D801260FE060683F
:104A6000381A2968884209D228686168791A401A78
:104A700028602046FFF726FA002600E00126FEF710
:104A800075FF3046BDE8F0814672656552544F535C
:104A90005C7372635C7461736B732E63000000005F
:104AA0004572726F723A25732C25640D0A0000005E
:104AB00014000020280000202DE9FF4F85B080461B
:104AC00089461746DDE912ABB800FEF77BFC0646C7
:104AD00056B15420FEF776FC04460CB1266304E080
:104AE0003046FEF771FF00E000247CB10020CDE9E4
:104AF00000ABCDE902403A4649464046089BFEF7E6
:104B0000E1FA2046FEF782F9012501E04FF0FF357A
:104B1000284609B0BDE8F08F0549096809B90120A8
:104B200005E00449096809B9022000E00020704747
:104B30001C000020380000202DE9F0414FF0000853
:104B400041480068002872D140480068451C3F4831
:104B50000560EDB93E480068006808B9012000E032
:104B6000002028B940F6D9123AA140A0FDF758F923
:104B70003748076841480068354908603F48076082
:104B80003F480068401C3E490860FEF783FB00BFB9
:104B90003C48006885423CD300BF2D48006800684F
:104BA00008B9012000E0002020B14FF0FF30354966
:104BB00008602DE026480068C068C4686668B54291
:104BC00002D23048066023E0201DFEF73DFEA06AB9
:104BD00018B104F11800FEF737FE94F82C100120EC
:104BE000884029490968084327490860E16A01EBC0
:104BF0008101264A02EB8100211DFEF771FE244946
:104C0000E06A0968C96A8842C7D34FF00108C4E75F
:104C100000BF1F480068C06A00EB80001B4951F8C4
:104C20002000012801D94FF0010805E0FFE71948ED
:104C30000068401C174908601748006808B14FF029
:104C400001084046BDE8F081380000201400002033
:104C5000040000204672656552544F535C737263C2
:104C60005C7461736B732E63000000004572726F99
:104C7000723A25732C25640D0A00000008000020FC
:104C8000280000203000002018000020E400002050
:104C900000000020200000202400002070B5054600
:104CA0002C460026002D4BD026480068844201D1B6
:104CB000012000E0002028B940F6C76222A128A008
:104CC000FDF7AEF8A06C28B940F6C9621EA124A079
:104CD000FDF7A6F8A06C401EA064616CE06A8842F3
:104CE0002ED0A06C60BB201DFEF7AEFD78B9E06A47
:104CF00000EB80001E4951F8200040B994F82C10B8
:104D0000012088401B49096881431A480160606C92
:104D1000E062E06AC0F12000A06194F82C1001204C
:104D2000884014490968084312490860E16A01EBA8
:104D300081010F4A02EB8100211DFEF7D1FD012602
:104D4000304670BD000000204672656552544F53D6
:104D50005C7372635C7461736B732E63000000009C
:104D60004572726F723A25732C25640D0A0000009B
:104D7000E40000201800002070B50646F068C46802
:104D80002CB940F661321AA11FA0FDF749F804F1D1
:104D90001800FEF759FD20480068A8B9201DFEF74D
:104DA00053FD94F82C10012088401C4909680843E1
:104DB0001A490860E16A01EB8101194A02EB81009E
:104DC000211DFEF78DFD04E004F118011548FEF7E2
:104DD00087FD1549E06A0968C96A884204D9012536
:104DE00001201249086000E00025284670BD00003F
:104DF0004672656552544F535C7372635C746173A1
:104E00006B732E63000000004572726F723A257357
:104E10002C25640D0A000000380000201800002036
:104E2000E40000208C03002000000020240000206B
:104E30002DE9F04105460F461F48006808B10120E2
:104E400000E0002028B940F699321CA121A0FCF70F
:104E5000E7FF47F000402860EC682CB940F6A1322B
:104E600016A11CA0FCF7DCFF2846FEF7EDFC201D78
:104E7000FEF7EAFC94F82C100120884019490968D3
:104E8000084318490860E16A01EB8101164A02EB08
:104E90008100211DFEF724FD1449E06A0968C96AF2
:104EA000884204D9012601201149086000E000264B
:104EB0003046BDE8F081000038000020467265658C
:104EC00052544F535C7372635C7461736B732E63E3
:104ED000000000004572726F723A25732C25640D34
:104EE0000A00000018000020E4000020000000205C
:104EF0002400002070B5002400263448006828B93A
:104F00004FF4FD6232A138A0FCF78AFFFEF7F4FCF3
:104F10002E480068401E2D49086008460068002899
:104F20004FD13548006800284BD024E03348C06892
:104F3000C46804F11800FEF787FC201DFEF784FC0E
:104F400094F82C10012088402D49096808432C4909
:104F50000860E16A01EB81012A4A02EB8100211D10
:104F6000FEF7BEFC2849E06A0968C96A884202D394
:104F70000120264908602148006808B9012000E0A6
:104F800000200028D2D00CB1FEF784F92048056833
:104F900065B100BFFFF7D0FD10B101201B490860CB
:104FA0006D1E002DF6D100201949086017480068D1
:104FB00038B10126300717490860BFF34F8FBFF3A0
:104FC0006F8FFEF7D3FC304670BD00003800002024
:104FD0004672656552544F535C7372635C746173BF
:104FE0006B732E63000000004572726F723A257376
:104FF0002C25640D0A000000100000208C03002006
:1050000018000020E4000020000000202400002000
:105010002000002004ED00E03850000800000020CF
:10502000E40000006C1E00081C510008E400002091
:105030001C4F00007C1E0008000000000000000063
:105040000000000000000000000000000000000060
:105050000000000000000000000000000000000050
:105060000000000000000000000000000000000040
:105070000000000000000000000000000000000030
:10508000000000000000000000000000AAAAAAAA78
:105090000000000000000000000000000102030406
:1050A00001020304060708090204060800A24A04D4
:1050B00000000000000000000102030406070809C8
:1050C00000000000000000000000000000000000E0
:1050D00000000000000000000000000000000000D0
:1050E00000000000000000000000000000000000C0
:1050F00000000000000000000000000000000000B0
:10510000000000000000000000000000000000009F
:0C51100000000000000000000000000093
:04000005080000ED02
:00000001FF
